:100000000C940C070C94E7290C94C0290C949929A2
:100010000C9472290C9434070C9434070C944B29DB
:100020000C9434070C9434070C9460260C94CF265F
:100030000C9434070C9434070C9434070C94340754
:100040000C9434070C9434070C9434070C94340744
:100050000C9434070C9434070C9434070C94012945
:100060000C9434070C9434070C9434070C94340724
:100070000C9434070C9434070C9434070C94340714
:100080000C9434070C9434070C9434070C94340704
:100090000C940E2A0C9434070C9434070C943407F7
:1000A0000C9434070C9434070C94340705A84CCDF9
:1000B000B2D44EB93836A9020C50B9918688083CA2
:1000C000A6AAAA2ABE000000803F0000000005008A
:1000D000010000020D0602F4040005040601F40705
:1000E000000A0C0A00F5160009100A01F328001096
:1000F0000D1001F442000B0D0C01F4540002040435
:1001000001F4550004110601F45E0004110601F427
:10011000670005050701F46B0006080B03F9710081
:100120000204050200720004010601FC73000201D2
:100130000501007400050D0500F47D00080D0A019D
:10014000F48A00040D0A03F49100090D0A01F4A0D9
:1001500000080D0A01F4AD00070D0A02F4B9000908
:100160000D0A01F4C800090D0A01F4D700080D0AB0
:1001700000F4E400090D0A01F4F300080D0A01F48B
:100180000001020A0501F70301030C0501F808014B
:1001900009090B01F8130109040B01FB18010909F6
:1001A0000B01F82301090D0A01F4320111101201AB
:1001B000F454010C0D0C00F468010B0D0C01F47AE1
:1001C000010B0D0D01F48C010B0D0D01F49E0109C5
:1001D0000D0B01F4AD01080D0B01F4BA010C0D0E6D
:1001E00001F4CE010B0D0D01F4E001020D0502F446
:1001F000E401070D0A01F4F0010B0D0C01F40202F9
:10020000080D0A01F40F020D0D0F01F425020B0D6C
:100210000D01F437020D0D0E01F44D020A0D0C0113
:10022000F45E020D0E0E01F475020C0D0D01F48941
:10023000020A0D0C01F49A02090D0B01F4A9020B3C
:100240000D0D01F4BB020B0D0C00F4CD02110D11CC
:1002500000F4E9020C0D0C00F4FD020C0D0C00F48E
:1002600011030A0D0B01F4220303110501F4290304
:10027000050D0500F4320303110500F439030707E7
:100280000801F440030A010A0003420304030500C5
:10029000F44403090A0A01F75003090D0A01F45F47
:1002A00003080A0901F76903080D0A01F476030837
:1002B0000A0A01F78003040D0501F48703080E0AFA
:1002C00001F79503080D0A01F4A203020D0401F4DD
:1002D000A60304110400F4AF03090D0901F4BE03E1
:1002E000020D0401F4C2030D0A0F01F7D303080A3B
:1002F0000A01F7DD03080A0A01F7E703090D0A01FD
:10030000F7F603080D0A01F70304050A0601F70AC8
:1003100004080A0901F71404040C0501F51A04087D
:100320000A0A01F72404090A0900F730040D0A0D2E
:1003300000F74104080A0900F74B04090E0900F709
:100340005B04070A0901F7640404110601F46D0453
:1003500002110402F4720404110601F47B04070381
:100360000901F9FFFFF8C0DEF72009864191FF136C
:1003700004C320C8FF89826190101F14DA3D1E83D8
:1003800040781708F47A3533F040203810EC20C656
:1003900020C640C6406C803900013C0277026304ED
:1003A000630477083C0E0660CC1981E0180F033611
:1003B000C2D8730631E3C4FE13266CCCCCC46623CA
:1003C000108C4663333332664C80257EA50030C3E3
:1003D0003F30C30CD6F0C0084421108442110800FD
:1003E0003C6642C3C3C3C3C3C3C342663C113F336D
:1003F000333333303E31B07830181C1C1C181810C1
:100400000807F83C66C3C303061C0703C3C3663C66
:100410000C187162C9A346FE183060C07F20100816
:100420000807F38C030180F06C63E01E3198780CB0
:1004300006F38D83C1E0D06C63E0FF030206040C79
:10044000081818181030303E31B0783C1B18F8C628
:10045000C1E0F06C63E03C66C2C3C3C3673B030307
:10046000C2663CC00030C0000064A00081C78E0C92
:100470000780700E0180FF80001FF000700E01C029
:10048000183871C080003E31B0783018183818180C
:100490000C0000018003F0060E06018600661DBBFD
:1004A00031CF18C79863CC31E611B399CCF78600E9
:1004B00001800070400FE00600F00F009019819855
:1004C00010830C3FC204606606C030FF183303601F
:1004D0006C0D833FC606C0780F01E06FF81F8619C8
:1004E00081A03C0180300600C0680D831861F0FFD8
:1004F000183303603C0780F01E03C0780F0360CF01
:10050000F0FFE030180C0603FD80C06030180FF8D3
:10051000FFC0C0C0C0C0FEC0C0C0C0C0C00F830EFE
:10052000606603C00C00C1FC03C0360360730F0F8C
:1005300010C0780F01E03C0780FFFE03C0780F0178
:10054000E03C06FFFFFFC0060C183060C183078F38
:100550001E2780C0D8330C630CC1B83F0730C318C6
:100560006306606C0CC0C0C0C0C0C0C0C0C0C0C00A
:10057000C0FFE03F01FC1FE0FD05EC6F637913CD88
:100580009E6CF1478E3C7180E07C0FC1E83D8798FE
:10059000F11E33C3786F07E07C0E0F8183180CC007
:1005A0006C01E00F007803C01B01980C60C0F800DC
:1005B000FF306C0F03C0F06FF300C0300C0300C0BD
:1005C000000F8183180CC06C01E00F007803C01B82
:1005D00001986C60C0FB0008FF8C0EC06C06C06CFC
:1005E0000CFF8C0EC06C06C06C06C0703F186C0F00
:1005F00003C01E01F00E00F03C0D863F00FF860395
:100600000180C06030180C06030180C0C0780F0163
:10061000E03C0780F01E03C0780F01B061F0C06CB1
:100620000D8110630C610460CC1901603C0700600F
:10063000C18130E19870CC286626211330C8986CAF
:100640004C14340A1A0707030380818060630C305E
:10065000C1980F00E00600F019019830C60E6060E6
:10066000C0360630C30C1981D80F00600600600642
:1006700000600600FFC060300C060301C060301847
:10068000060300FFC0FB6DB6DB6DB6E0841084107E
:100690008410841080EDB6DB6DB6DBE03060A244E0
:1006A000D8A180FFC0C6307E71B0C060F3DB0D867C
:1006B000C73DC0C060301BCE360F0783C1E0F07C61
:1006C0006DE03C66C3C0C0C0C0C3663C0303033BCF
:1006D00067C3C3C3C3C3C3673B3C66C3C3FFC0C0D8
:1006E000C3663C366F66666666603B67C3C3C3C35A
:1006F000C3C3673B0303C67CC0C0C0DEE3C3C3C340
:10070000C3C3C3C3C3C3FFFFC03003333333333367
:1007100033E0C06030184C466361F0EC6231986C95
:1007200030FFFFFFC0DEF71CF0C7863C31E18F0CC5
:100730007863C31E18C0DEE3C3C3C3C3C3C3C3C34C
:100740003C66C3C3C3C3C3C3663CDE71B0783C1E02
:100750000F0783E36F30180C003B67C3C3C3C3C3E9
:10076000C3673B030303DF318C6318C6003EE3C05D
:10077000C0E03C07C3E37E66F666666667C3C3C334
:10078000C3C3C3C3C3C77BC1A098CC4221B0D02888
:100790001C0C00C61E3891C4CA66D316D0A6871C8E
:1007A00038C0C6004362361C181C3C266243C12177
:1007B00098CC4261B0D0381C0C0603010300FE0C3B
:1007C00030C1861820C1FC3666666ECE666666301D
:1007D000FFFFFFFFC0C666666737666666C06124B6
:1007E000386303CA0020007E001600000000003EAF
:1007F0005B4F5B3E3E6B4F6B3E1C3E7C3E1C183C91
:100800007E3C181C577D571C1C5E7F5E1C00183CEC
:100810001800FFE7C3E7FF0018241800FFE7DBE735
:10082000FF30483A060E2629792926407F0505071C
:10083000407F05253F5A3CE73C5A7F3E1C1C080878
:100840001C1C3E7F14227F22145F5F005F5F06093D
:100850007F017F006689956A606060606094A2FF96
:10086000A29408047E040810207E201008082A1C88
:1008700008081C2A08081E101010100C1E0C1E0C54
:1008800030383E3830060E3E0E06000000000000F4
:10089000005F00000007000700147F147F14242A63
:1008A0007F2A122313086462364956205000080735
:1008B0000300001C2241000041221C002A1C7F1C56
:1008C0002A08083E08080080703000080808080858
:1008D000000060600020100804023E5149453E00BF
:1008E000427F400072494949462141494D3318141D
:1008F000127F1027454545393C4A4949314121116C
:1009000009073649494936464949291E000014005D
:100910000000403400000008142241141414141480
:10092000004122140802015909063E415D594E7CDE
:100930001211127C7F494949363E414141227F4193
:1009400041413E7F494949417F090909013E4141F1
:1009500051737F0808087F00417F41002040413FDC
:10096000017F081422417F404040407F021C027FEB
:100970007F0408107F3E4141413E7F090909063E40
:100980004151215E7F09192946264949493203010F
:100990007F01033F4040403F1F2040201F3F403821
:1009A000403F631408146303047804036159494DFC
:1009B00043007F4141410204081020004141417F32
:1009C00004020102044040404040000307080020A8
:1009D000545478407F2844443838444444283844A8
:1009E00044287F385454541800087E090218A4A4DF
:1009F0009C787F0804047800447D40002040403DFE
:100A0000007F1028440000417F40007C0478047877
:100A10007C080404783844444438FC18242418180A
:100A2000242418FC7C080404084854545424040466
:100A30003F44243C4040207C1C2040201C3C403053
:100A4000403C44281028444C9090907C4464544C82
:100A500044000836410000007700000041360800DD
:100A600002010204023C2623263C1EA1A161123A87
:100A70004040207A385454555921555579412254D3
:100A8000547842215554784020545579400C1E52D8
:100A9000721239555555593954545459395554547D
:100AA000580000457C410002457D420001457C40E4
:100AB0007D1211127DF0282528F07C545545002028
:100AC00054547C547C0A097F4932494949323A449A
:100AD00044443A324A4848303A4141217A3A424005
:100AE0002078009DA0A07D3D4242423D3D404040D7
:100AF0003D3C24FF2424487E4943662B2FFC2F2BAA
:100B0000FF0929F620C0887E09032054547941004A
:100B100000447D413048484A32384040227A007AC9
:100B20000A0A727D0D19317D2629292F28262929A7
:100B3000292630484D4020380808080808080808C9
:100B4000382F10C8ACBA2F102834FA00007B0000F0
:100B500008142A142222142A14085500550055AAF4
:100B600055AA55AAFF55FF55FF000000FF001010C1
:100B700010FF00141414FF001010FF00FF1010F0FD
:100B800010F0141414FC001414F700FF0000FF0010
:100B9000FF1414F404FC141417101F10101F101F5E
:100BA0001414141F00101010F0000000001F10108B
:100BB00010101F10101010F010000000FF10101087
:100BC000101010101010FF10000000FF140000FFA4
:100BD00000FF00001F10170000FC04F4141417108D
:100BE000171414F404F40000FF00F7141414141480
:100BF0001414F700F7141414171410101F101F14F6
:100C00001414F4141010F010F000001F101F000056
:100C1000001F14000000FC140000F010F01010FF82
:100C200010FF141414FF141010101F00000000F027
:100C300010FFFFFFFFFFF0F0F0F0F0FFFFFF0000FC
:100C4000000000FFFF0F0F0F0F0F3844443844FC23
:100C50004A4A4A347E02020606027E027E0263553A
:100C60004941633844443C04407E201E2006027EF5
:100C7000020299A5E7A5991C2A492A1C4C72017207
:100C80004C304A4D4D303048784830BC625A463D71
:100C90003E494949007E0101017E2A2A2A2A2A4426
:100CA000445F444440514A444040444A514000005B
:100CB000FF0103E080FF000008086B6B0836123666
:100CC0002436060F090F0600001818000000101047
:100CD000003040FF0101001F01011E00191D171205
:100CE000003C3C3C3C0000000000FD0112FD01B155
:100CF000AE00B301F1CA017FA20100B50100AB0152
:100D000001B10132BE0105A600C103C880C8C701F8
:100D10000FB403A0B555B60101AF000000000000FC
:100D2000240027002A002D003000000000002300CE
:100D3000260029002C002F00080B000202020000F0
:100D4000090400000102020000052400100105242E
:100D500001010104240206052406000107058103A0
:100D600010004009040100020A0000000705020209
:100D7000400000070583024000000403090412013B
:100D80000002EF020140412337800001010203010C
:100D900041726475696E6F204C4C430041726475FA
:100DA000696E6F204D6963726F00000000020009D8
:100DB0000F0000030401000C000000000000000010
:100DC0000000000000000000000408020110408044
:100DD0004010204080408008020401804020100222
:100DE0000110801020404020000000002500280055
:100DF0002B002E0031000404040404030405020245
:100E000002020403020202020606060606060404A3
:100E1000020202040400062C11241FBECFEFDAE008
:100E2000DEBFCDBF12E0A0E0B1E0E4E3FDE602C02A
:100E300005900D92AC31B107D9F724E0ACE1B2E0F6
:100E400001C01D92A33FB207E1F717E0CCE0D7E065
:100E500004C02197FE010E945136CB30D107C9F75B
:100E60000E94062D0C9498360C940000CF93DF93CB
:100E7000DC0116962C9146E954E0E3E9F4E0C1E97F
:100E8000D4E0211106C045E954E0EFE8F4E0CDE8F4
:100E9000D4E0DC0115961C921E92149728813981AA
:100EA000232B59F49183808399838883FA0180816D
:100EB0008F5F8083DF91CF910895C081D1819D8321
:100EC0008C8391838083F2CFFC018091FD03882382
:100ED00011F13FB7F89482E08093E9002091F2008D
:100EE000822F90E01816190614F481E090E0882310
:100EF00039F0289A44E64093FC034091F100408386
:100F0000222339F02091F200211103C02BE6209317
:100F1000E8003FBF08958FEF9FEF08952FB7F89433
:100F200083E08093E9009091E800892F807295FF1B
:100F300004C09091F20080E4891B2FBF0895809136
:100F4000F40381110DC082E08093F00384E080936C
:100F5000F1031092F3031092F20381E08093F40303
:100F600080EF93E008954091B4035091B503209130
:100F7000B2033091B30342175307B4F49091E800E1
:100F80009570E1F39091E80092FD19C08093F10013
:100F90008091B4039091B50301968F739927892BA3
:100FA00019F48EEF8093E8008091B4039091B5031B
:100FB00001969093B5038093B40381E0089580E097
:100FC0000895DF92EF92FF920F931F93CF93DF93D9
:100FD000D82E8A01EB017B01E40EF51ECE15DF054C
:100FE00059F0D7FE12C0FE0184910E94B3072196EA
:100FF0008111F4CF0FEF1FEFC801DF91CF911F9147
:101000000F91FF90EF90DF9008958881EECF0F93BE
:101010001F93CF93DF931F92CDB7DEB782E0898312
:1010200042E450E068E37DE080E80E94E1070E942E
:101030009F07DC0112960D911C910115110589F095
:10104000D801ED91FC910280F381E02DBE016F5F2C
:101050007F4FC801099597FD04C0F80100851185EF
:10106000ECCF89810F90DF91CF911F910F9108955F
:10107000615030F02091F100FC0120830196F8CFFF
:10108000289A84E68093FC030895AF92BF92CF9292
:10109000DF92EF92FF920F931F93CF93DF936C0138
:1010A0007B018B01040F151FEB015E01AE18BF0819
:1010B000C017D10759F06991D601ED91FC910190CB
:1010C000F081E02DC6010995892B79F7C501DF91E3
:1010D000CF911F910F91FF90EF90DF90CF90BF9035
:1010E000AF900895CF93DF931F92CDB7DEB769839A
:1010F000DC01ED91FC910280F381E02D41E050E0B4
:10110000BE016F5F7F4F09950F90DF91CF910895DA
:1011100083E08093E9008091F200882319F08AE34C
:101120008093E80008950E948E0790E00895CF9381
:10113000DF931F92CDB7DEB7FC018485958597FDBF
:1011400008C02FEF3FEF358724870F90DF91CF91B5
:101150000895CE0101960E946407019719F48981D0
:1011600090E0F3CF8FEF9FEFF0CF0F931F93CF93CC
:10117000DF931F92CDB7DEB78C01FC018485958586
:1011800097FF0BC0CE0101960E946407019771F48E
:10119000898190E0F80195878487F8018485958599
:1011A0000F90DF91CF911F910F9108958FEF9FEFD7
:1011B000F1CFFC018485958597FD0BC09FB7F8940E
:1011C00082E08093E9008091F2009FBF90E0019659
:1011D00008959FB7F89482E08093E9008091F2002F
:1011E0009FBF90E0089581508F3008F047C0E82FEE
:1011F000F0E0E350F74F0C9451361A091E090C0920
:10120000120916093E093E093E09210927092B0941
:101210002F0935093E093909809180008F77809325
:1012200080000895809180008F7DF9CF80918000AB
:10123000877FF5CF84B58F7784BD089584B58F7D82
:10124000FBCF809190008F778093900008958091DC
:1012500090008F7DF9CF80919000877FF5CF8091AE
:10126000C0008F778093C00008958091C0008F7D6B
:10127000F9CF8091C200877F8093C2000895CF93F9
:10128000DF93282F30E0F901E655F24F8491F90100
:10129000E753F24FD491F901EA50F24FC491CC23B5
:1012A000A1F081110E94F308EC2FF0E0EE0FFF1F78
:1012B000E65DF24FA591B491EC91ED2381E090E0D1
:1012C00009F480E0DF91CF91089580E090E0FACFBB
:1012D0001F93CF93DF93282F30E0F901E655F24FAB
:1012E0008491F901E753F24FD491F901EA50F24F9A
:1012F000C491CC23A9F0162F81110E94F308EC2F82
:10130000F0E0EE0FFF1FE851F24FA591B4918FB7B7
:10131000F894EC91111108C0D095DE23DC938FBFB7
:10132000DF91CF911F910895DE2BF8CFCF93DF93FC
:1013300090E0FC01E753F24F24918A50924FFC0158
:1013400084918823C9F090E0880F991FFC01E45E26
:10135000F24FA591B491FC01E851F24FC591D4919F
:1013600061110DC09FB7F8948C91209582238C93C6
:101370008881282328839FBFDF91CF910895623011
:1013800051F49FB7F8943C91822F809583238C93DE
:10139000E8812E2BEFCF8FB7F894EC912E2B2C9366
:1013A0008FBFEACF3FB7F8948091AE039091AF031F
:1013B000A091B003B091B10326B5A89B05C02F3F03
:1013C00019F00196A11DB11D3FBFBA2FA92F982F6B
:1013D0008827BC01CD01620F711D811D911D42E066
:1013E000660F771F881F991F4A95D1F708958F922E
:1013F0009F92AF92BF92CF92DF92EF92FF924B01FA
:101400005C010E94D2096B017C010E94D2096C1917
:101410007D098E099F09683E734081059105A8F3F7
:1014200021E0821A9108A108B10888EEC80E83E075
:10143000D81EE11CF11C81149104A104B10429F708
:10144000FF90EF90DF90CF90BF90AF909F908F90E4
:1014500008958F929F92AF92BF92CF92DF92EF92B8
:10146000FF920F931F93CF93DF936C017B018A014F
:1014700080911501882309F45CC08091FD038823C5
:1014800009F457C08091B80380FF05C08091E00047
:1014900082608093E000E801B12C8AEFA82E93E0EF
:1014A000892E2AE3922E209711F4BB20D9F10E94B5
:1014B0008E0781110AC0AA94AA20D9F161E070E0D8
:1014C00080E090E00E94F709EECF8C171D0611F026
:1014D0000CF08C2F9FB7F8948092E9002091E800DF
:1014E00025FD02C09FBFDFCF282F30E0C21BD30BEA
:1014F000F701815020F041914093F100FACFE20EC4
:10150000F31EBB2021F09092E800B12CEBCF80912C
:10151000E80085FDE7CF9092E800BB24B3942097C4
:1015200009F3F3CF5D9A84E68093B7031016110692
:101530003CF081E090E0F6019383828310E000E0CC
:10154000C801DF91CF911F910F91FF90EF90DF9035
:10155000CF90BF90AF909F908F9008952FB7F89441
:101560006091AA037091AB038091AC039091AD039D
:101570002FBF0895089520915F03260F3327331F4F
:1015800021323105ECF420918303FC0190E080E0EE
:10159000243069F082E00895A0915F032191AC01AD
:1015A000415C5C4FA40FB52FB11D2C93019686179B
:1015B00098F380915F03680F60935F0380E0089564
:1015C00081E0089508958FEF9FEF08958FEF9FEFCB
:1015D00008958091380390E091958195910908953F
:1015E000CF93DF93CB01EA01642F0E94BB0ACE01A7
:1015F000DF91CF910895CF93DF931F92CDB7DEB7E0
:10160000698361E0CE0101960E94BB0A81E090E00F
:101610000F90DF91CF910895FC01A5A1B6A18C9107
:1016200092A589238C93A5A1B6A18C9191A5892B14
:101630008C9308950F931F93CF93DF93EC018B014D
:101640008DA981110DC01EBD0DB407FEFDCF0EBDCD
:101650000DB407FEFDCFDF91CF911F910F9108953B
:101660008130E9F480E1E9A1FAA1908117FF14C06B
:101670002DA1922B9083EBA1FCA190812FA1922B05
:101680009083EBA1FCA1908128A592239083000F69
:10169000111F815041F7DFCF2EA19223EBCFEF8DA9
:1016A000F8A11083CE010E940C0BEF8DF8A10083EE
:1016B000CE01DF91CF911F910F910C940C0BFC0187
:1016C00085A9811105C06EBD0DB407FEFDCF08953B
:1016D0008130E1F488E0A1A1B2A19C9167FF13C021
:1016E00025A1922B9C93A3A1B4A19C9127A1922BFD
:1016F0009C93660FA3A1B4A19C9120A592239C93D7
:10170000815049F7089526A19223ECCFA78DB0A16F
:101710006C93CF010C940C0BCF93DF93EC01ED8D08
:10172000FE8D80819CA989238083CE010E945F0B5E
:10173000ED8DFE8D80819BA9892B8083DF91CF91D8
:101740000895AF92BF92CF92DF92EF92FF920F93E4
:101750001F93CF93DF93EC016B017A012150310984
:101760005901A60EB71E01501109040F151F8E89CD
:1017700080FF05C09A2D5801092F6A01E62E65E108
:10178000CE010E948C0B6C2DCE010E945F0B6A2D46
:10179000CE010E945F0B65E7CE010E948C0B6E2D7F
:1017A000CE010E945F0B602FCE010E945F0B6CE5A3
:1017B000CE01DF91CF911F910F91FF90EF90DF90BD
:1017C000CF90BF90AF900C948C0BFC0185A9811138
:1017D00004C091A182A19CBD8DBD08951F93CF939C
:1017E000DF93EC01162FE881F9810284F385E02D67
:1017F0000995112371F06DADCE010E948C0BE8812B
:10180000F9810688F789E02DCE01DF91CF911F91F4
:1018100009946EADF1CFAF92BF92CF92DF92EF926B
:10182000FF920F931F93CF93DF93EC0177FD38C0A6
:1018300088859985681779079CF557FD31C08A8599
:101840009B854817590764F569017A015B01E881B6
:10185000F9810284F385E02DCE010995E881F981B3
:1018600002A4F3A5E02D01E010E021E030E0A701A3
:10187000B501CE010995B601CE010E941A0BE8818F
:10188000F9810688F789E02DCE01DF91CF911F9174
:101890000F91FF90EF90DF90CF90BF90AF900994A1
:1018A000DF91CF911F910F91FF90EF90DF90CF903C
:1018B000BF90AF9008958F929F92AF92BF92CF92B8
:1018C000DF92EF92FF920F931F93CF93DF93EC0180
:1018D00049015701E881F98102A4F3A5E02D09959A
:1018E0009401D8010E9457366B017C01C114D104C8
:1018F000E104F10409F490C08DA9811115C081E0C3
:10190000C81AD108E108F1088FEFC816D806E80612
:10191000F80609F481C0BEBC0DB407FEFDCFAEBC15
:101920000DB407FEFDCFEBCF813009F045C081E05B
:10193000C81AD108E108F1088FEFC816D806E806E2
:10194000F80609F469C09B2D88E0E9A1FAA120817D
:1019500097FF2CC03DA1232B2083EBA1FCA120816C
:101960003FA1232B2083EBA1FCA1208138A52323B9
:101970002083990F815049F79A2D88E0E9A1FAA1B7
:10198000208197FF16C03DA1232B2083EBA1FCA152
:1019900020813FA1232B2083EBA1FCA1208138A52E
:1019A00023232083990F815049F7C1CF3EA12323E0
:1019B000D3CF3EA12323E9CFBA1016C0CC0CDD1C37
:1019C000EE1CFF1CEF8DF8A1B08281E0C81AD1088F
:1019D000E108F1088FEFC816D806E806F806E1F02E
:1019E000CE010E940C0BF1CF81E0C81AD108E108AA
:1019F000F1088FEFC816D806E806F80669F0EF8DF3
:101A0000F8A1B082CE010E940C0BEF8DF8A1A0824C
:101A1000CE010E940C0BE8CFDF91CF911F910F9167
:101A2000FF90EF90DF90CF90BF90AF909F908F90FE
:101A300008958F929F92AF92BF92CF92DF92EF92D2
:101A4000FF920F931F93CF93DF934C01EB016A0139
:101A5000590137FF07C0C9010196C80FD91FB194BA
:101A6000A194B108F401A085B185CA17DB070CF079
:101A700058C017FF07C0C8010196C80ED91E11959E
:101A800001951109F40182859385C816D9060CF0D9
:101A900048C0FE01EA0DFB1DAF014150510957FD41
:101AA00040C0B601600F711F9B012150310937FD05
:101AB00038C0D7FF03C05F01D0E0C0E0D7FE03C04D
:101AC0008B01D12CC12C4A175B071CF05D01AC1AAD
:101AD000BD0A281739071CF08C010C191D09D40107
:101AE000ED91FC910284F385E02DC40109959501E7
:101AF000A601BE01C4010E945B0CD401ED91FC91D2
:101B00000688F789E02DC401DF91CF911F910F91D5
:101B1000FF90EF90DF90CF90BF90AF909F908F900D
:101B20000994DF91CF911F910F91FF90EF90DF907B
:101B3000CF90BF90AF909F908F900895EF92FF92BB
:101B40000F931F932115310529F00115110511F08F
:101B50000E94190D1F910F91FF90EF9008958F92A1
:101B60009F92AF92BF92CF92DF92EF92FF920F932C
:101B70001F93CF93DF935C014B016A01E90177FD6D
:101B800052C0DC0118968D919C91681779070CF072
:101B90004AC0209709F447C037FF07C0C901019622
:101BA000C80ED91ED195C195D109F50182859385BD
:101BB000C816D906C4F5A6014C0F5D1F9A01215025
:101BC000310937FD30C0D7FE03C0EA01D12CC12C4A
:101BD000281739071CF0EC01CC19DD09D501ED916E
:101BE000FC910284F385E02DC501099578018E01F1
:101BF00021E030E0A601B401C5010E945B0CD501D3
:101C0000ED91FC910688F789E02DC501DF91CF9118
:101C10001F910F91FF90EF90DF90CF90BF90AF900A
:101C20009F908F900994DF91CF911F910F91FF901A
:101C3000EF90DF90CF90BF90AF909F908F900895DE
:101C40008F929F92AF92BF92CF92DF92EF92FF92CC
:101C50000F931F93CF93DF935C016B014A01E9015E
:101C600057FD52C0DC011A968D919C914817590777
:101C70000CF04AC0209709F447C037FF07C0C901DC
:101C80000196C80ED91ED195C195D109F50180855F
:101C90009185C816D906C4F5A6014C0F5D1F9A019F
:101CA0002150310937FD30C0D7FE03C0EA01D12CE5
:101CB000C12C281739071CF0EC01CC19DD09D5011E
:101CC000ED91FC910284F385E02DC5010995780121
:101CD00001E010E09E01A401B601C5010E945B0C69
:101CE000D501ED91FC910688F789E02DC501DF91C2
:101CF000CF911F910F91FF90EF90DF90CF90BF9009
:101D0000AF909F908F900994DF91CF911F910F9189
:101D1000FF90EF90DF90CF90BF90AF909F908F900B
:101D20000895EF92FF920F931F93CF93DF9377FD68
:101D300032C0DC011896ED91FC916E177F075CF5BF
:101D40002115310541F137FF07C0F90131964E0FDA
:101D50005F1F319521953109DC011A96ED91FC91B7
:101D60004E175F07C4F4EA01C20FD31FDE011197BB
:101D7000B7FD11C057FF03C09E0150E040E0AE1711
:101D8000BF071CF09F01241B350B7801890121E05E
:101D900030E00E945B0CDF91CF911F910F91FF907B
:101DA000EF9008952F923F924F925F926F927F92A1
:101DB0008F929F92AF92BF92CF92DF92EF92FF925B
:101DC0000F931F93CF93DF93CDB7DEB72C970FB64A
:101DD000F894DEBF0FBECDBF3C017C836B835C8774
:101DE0004B871801270181E090E05C01A41AB50A35
:101DF000CA01919581959109AC01440F551F5A83F1
:101E00004983C80101969E838D83F12CE12C88249F
:101E10008394912C922F91709F8322702887AB011D
:101E20004F5F5F4F5A8749878B859C85E816F90677
:101E30000CF07AC0CB84DC84B7FC0CC06C0191E060
:101E4000C91AD10849815A814E5F5F4F5A8349832D
:101E5000A40EB51E5FEFE51AF50A82E0880E911C0C
:101E6000A80CB91CCE14DF0464F19F81992399F06A
:101E70009601220F331F4D815E81240F351F820191
:101E80004B815C814C195D09B701660D771D80EBB4
:101E900094E00E94910E5885552399F09601220FE7
:101EA000331F8D819E81280F391F82014B815C81F8
:101EB0004C195D09B3016E197F0980EB94E00E9413
:101EC000910E4B855C854C155D0559F15F8155235D
:101ED00091F0940122503109220D331D8201498570
:101EE0005A854E195F096B857C85660D771D80EBE1
:101EF00094E00E94910E8885882399F094012250E5
:101F00003109220D331DB3014B855C85641B750BB4
:101F1000820149855A854E195F0980EB94E00E9441
:101F2000910EDC86CB8680CF2C960FB6F894DEBF60
:101F30000FBECDBFDF91CF911F910F91FF90EF901A
:101F4000DF90CF90BF90AF909F908F907F906F90D9
:101F50005F904F903F902F900895EF92FF920F93D4
:101F60001F93CF93DF9357FD31C0DC011A96ED919B
:101F7000FC914E175F0754F52115310539F137FFF4
:101F800007C0F90131966E0F7F1F319521953109F8
:101F9000DC011896ED91FC916E177F07BCF4EB0104
:101FA000C20FD31FDE011197B7FD10C077FF03C02A
:101FB0009E0170E060E0AE17BF071CF09F01261B7A
:101FC000370B780101E010E00E945B0CDF91CF91AC
:101FD0001F910F91FF90EF9008958F929F92AF9273
:101FE000BF92CF92DF92EF92FF920F931F93CF9306
:101FF000DF9347012115310509F44BC00115110587
:1020000009F447C037FF07C0F90131966E0F7F1FF3
:10201000319521953109DC011896AD90BC906A1577
:102020007B05BCF517FF07C0F80131964E0F5F1F07
:10203000119501951109DC011A96ED91FC914E174D
:102040005F073CF56B01C20ED31EE6012197D7FD59
:1020500020C07A01E00EF11ED7011197B7FD19C01B
:1020600077FF03C0960170E060E057FF03C087016F
:1020700050E040E0CA15DB051CF09501261B370B2C
:10208000AE17BF071CF08F01041B150B74010E94D3
:102090005B0CDF91CF911F910F91FF90EF90DF903C
:1020A000CF90BF90AF909F908F900895EF92FF9246
:1020B0000F931F93CF93DF93EC0177FD22C08885A8
:1020C000998568177907ECF457FD1BC08A859B85B5
:1020D00048175907B4F47901E881F98102A4F3A5FE
:1020E000E02D01E010E021E030E0CE010995B701DC
:1020F000CE01DF91CF911F910F91FF90EF900C9443
:102100001A0BDF91CF911F910F91FF90EF900895DF
:102110002F923F924F925F926F927F928F929F92F7
:10212000AF92BF92CF92DF92EF92FF920F931F93E5
:10213000CF93DF9300D000D0CDB7DEB76C015B0149
:102140005C834B8381E090E04C01841A950A2A015C
:10215000519441945108440C551CF12CE12C6624F7
:102160006394712C422F44704983522F52705A83CA
:10217000822F8870282E2170322E4B815C81E416CC
:10218000F5060CF083C097FC09C0415051095C83EF
:102190004B8352E0450E511C840C951C8FEFE81ABE
:1021A000F80A92E0690E711C860C971C4981442341
:1021B000C1F098014B815C814A0D5B1DB6016E0D2B
:1021C0007F1D80EB94E00E9456109801A5014E0DF2
:1021D0005F1D6B817C816C0D7D1D80EB94E00E9406
:1021E00056105A815523C9F09801A5018B819C8115
:1021F000481B590BB6016E0D7F1D80EB94E00E94C9
:1022000056109801A5014E195F096B817C816C0DF8
:102210007D1D80EB94E00E9456102220C9F09801A9
:10222000A5014E0D5F1DB6018B819C81681B790B4A
:1022300080EB94E00E94561098014B815C814A0D1E
:102240005B1DB6016E197F0980EB94E00E94561069
:10225000332009F492CF9801A5014E195F09B60108
:102260008B819C81681B790B80EB94E00E94561057
:102270009801A5018B819C81481B590BB6016E19F1
:102280007F0980EB94E00E94561077CF0F900F905B
:102290000F900F90DF91CF911F910F91FF90EF90D2
:1022A000DF90CF90BF90AF909F908F907F906F9076
:1022B0005F904F903F902F900895CF93DF93EC0164
:1022C0000E94E50B8FA987FD06C0EB8DFC8D8081F8
:1022D0009AA989238083DF91CF9108950895AF92C1
:1022E000BF92CF92DF92EF92FF920F931F93CF9303
:1022F000DF93EC01E62E8A01A22E0E94E50B8FA946
:1023000087FD06C0EB8DFC8D80819AA9892380838F
:10231000ED8DFE8D80819CA9892380836E2DCE0159
:102320000E945F0BED8DFE8D80819BA9892B8083A0
:10233000D12CC12CB12CCA14DB04E4F48DA9780192
:10234000823079F488A9882361F0F8016191719154
:102350007F01CE010E941A0BFFEFCF1ADF0A87011F
:10236000EACFFFEFEF1AFF0AF8016491CE010E9455
:102370005F0BF2CF8FA987FD06C0EB8DFC8D8081AE
:1023800099A9892B8083DF91CF911F910F91FF90A5
:10239000EF90DF90CF90BF90AF900895611106C08D
:1023A00066EA20E050E040E00C946F1167EAF9CF54
:1023B000FF920F931F93CF93DF93EC01F62E8A01C8
:1023C0000E94E50B8FA987FD06C0EB8DFC8D8081F7
:1023D0009AA989238083ED8DFE8D80819CA9892314
:1023E00080836F2DCE010E945F0BED8DFE8D80816D
:1023F0009BA9892B80838DA9F801823099F0608197
:10240000CE010E945F0B8FA987FD06C0EB8DFC8D6E
:10241000808199A9892B8083DF91CF911F910F91A2
:10242000FF90089588A9882351F360817181CE01BE
:102430000E941A0BE8CF0F931F93CF93DF9300D026
:10244000CDB7DEB78C016370FC01668B848195810A
:1024500026813781623069F1633071F1613009F1B1
:1024600044E749839187808733872287AE014F5F96
:102470005F4F60EAC8010E94D811F8018689823056
:10248000E8F486818A83AE014E5F5F4F61EAC8013E
:102490000E94D8110F900F90DF91CF911F910F9153
:1024A000089547E74983F80131872087938782871A
:1024B000DDCF46E64983D6CF45E6F4CF80E0E2CFD4
:1024C000FC0187A987FD06C0A38DB48D9C9181A9CD
:1024D000892B8C9308952F923F924F925F926F9227
:1024E0007F928F929F92AF92BF92CF92DF92EF92A4
:1024F000FF920F931F93CF93DF9300D000D000D0B3
:10250000CDB7DEB75C012B011A01690178014217D2
:10251000530784F03A83298337FF04C0C901019629
:102520009A83898389819A81959587959E838D83E6
:10253000039724F083E090E09E838D8380EB94E00A
:102540000E945D118D819E81880F991F9A838983D6
:102550004101881A990A6D807E806A0C7B1C870174
:102560009401A201B30180EB94E00E94AD0FC6017B
:10257000840D951D9C838B83AC01415051099401BE
:10258000B30180EB94E00E94AD0F89819A81C81A53
:10259000D90A8D819E81480E591E9601A201B5016E
:1025A00080EB94E00E94910E2A0C3B1CB10161501B
:1025B00071099601A20180EB94E00E94910E21E046
:1025C0004D815E81B201C3010E9488108D819E8180
:1025D000281A390A91E0291A310822E04D815E81DA
:1025E000B201C1010E948810CB80DC808D819E8168
:1025F000C81AD90A91E0C91AD10824E04D815E8138
:10260000B601C1010E94881028E04D815E81B601AB
:10261000C3010E94881080EB94E026960FB6F894D0
:10262000DEBF0FBECDBFDF91CF911F910F91FF9005
:10263000EF90DF90CF90BF90AF909F908F907F9062
:102640006F905F904F903F902F900C9460122F925C
:102650003F924F925F926F927F928F929F92AF9232
:10266000BF92CF92DF92EF92FF920F931F93CF937F
:10267000DF9300D000D0CDB7DEB78C017C836B83B5
:1026800080EB94E00E945D112B813C8147E650E095
:10269000B80180EB94E00E9456102B813C8141E60A
:1026A00050E0B80180EB94E00E945610B8016D5FD5
:1026B0007F4F2B813C8144E650E080EB94E00E9408
:1026C0005610B801635071092B813C8144E650E0FB
:1026D00080EB94E00E94561081E090E09A83898319
:1026E000D12CC12C23E0E22EF12C3AEF232E3324FF
:1026F0003A944EEFA42EBB24BA948FEFC81AD80A8E
:1027000089819A8102969A838983A80EB91E36011F
:10271000600E711E2B813C81470194E6890E911C4D
:10272000A401B30180EB94E00E94561028014C18DC
:102730005D082B813C81A401B20180EB94E00E94F2
:1027400056102B813C8184E6882E912C8E189F0890
:10275000A401B30180EB94E00E9456102B813C81D0
:10276000A401B20180EB94E00E945610460184E679
:10277000880E911C2B813C81A40138016E0C7F1CBA
:10278000B30180EB94E00E9456102B813C81A401A0
:1027900028014E185F08B20180EB94E00E945610A9
:1027A00094E6892E912C8C189D082B813C81A401E4
:1027B000B30180EB94E00E9456102B813C81A40170
:1027C000B20180EB94E00E945610CE14DF04D4F0E6
:1027D00080EB94E00F900F900F900F90DF91CF91CE
:1027E0001F910F91FF90EF90DF90CF90BF90AF902F
:1027F0009F908F907F906F905F904F903F902F9021
:102800000C9460129FEFA916B90609F476CF81E007
:10281000E81AF10892E0290E311CA20CB31C6DCF0E
:10282000EF92FF920F931F93CF93DF93EC0180EB16
:1028300094E00E945D1100E417E027E030E041E6FB
:1028400050E0BE0180EB94E00E94910E80E4E82EFF
:1028500087E0F82E10E000E023E043E050E064E67B
:1028600070E0CE010E94D20E80EB94E0DF91CF9118
:102870001F910F91FF90EF900C9460120895FC014E
:102880006370668B8481958126813781613039F050
:10289000633029F0918780873387228708953187B5
:1028A00020879387828708952F923F924F925F925D
:1028B0006F927F928F929F92AF92BF92CF92DF9250
:1028C000EF92FF920F931F93CF93DF93CDB7DEB7B5
:1028D0006A970FB6F894DEBF0FBECDBF9A8F898F6F
:1028E0007A8369834A01D22E18870F833701BC2C63
:1028F000DC0159962D913C915A972115310509F02B
:1029000015C118968D919C911997681779070CF04D
:10291000D7C11A968D919C91481759070CF0D0C1D8
:102920004C2C512CB6E0CB9E600D711D11247C8780
:102930006B87161617060CF0C3C1EA2DF0E0FA8774
:10294000E98793E0EE0FFF1F9A95E1F7F88BEF8789
:10295000CF01840F951F181619060CF0B1C1A98D6F
:10296000BA8D58968C91811104C0BFEABD1508F448
:10297000D394A98DBA8DED91FC9111970284F385C2
:10298000E02DCD010995B5E0DB9EC0011124E98160
:10299000FA81FC83EB83312C212C9C012651384F8A
:1029A000388F2F8B4A2D50E05E8B4D8BEF89F88D41
:1029B000E20DF31D44919E828D82D12CC12C698140
:1029C0007A81620D731D7A8B698B842F90E09C8BCA
:1029D0008B8BE98DFA8DA081B18140FF82C0F1E03F
:1029E000BF126FC0AF126DC01C96ED91FC912F818C
:1029F0003885A4014C0D5D1D69897A89898D9A8D70
:102A00000995EB89FC89F595E7954E2F5FEFC51A7F
:102A1000D50A6D817E818D899E89680F791F7E839D
:102A20006D8398E0C916D10481F6AFEF2A1A3A0AED
:102A3000EB81FC81E40DF51DFC83EB83F5E02F16A3
:102A4000310409F0B3CF2F81388526153705B9F049
:102A5000A98DBA8DED91FC91B1E0BB1257C0AB12BC
:102A600055C069817A816B5F7F4F0088F189E02DC5
:102A7000830128E030E0A401898D9A8D0995A98D04
:102A8000BA8DED91FC9111970688F789E02DCD0163
:102A90006A960FB6F894DEBF0FBECDBFDF91CF911F
:102AA0001F910F91FF90EF90DF90CF90BF90AF906C
:102AB0009F908F907F906F905F904F903F902F905E
:102AC00009941E96ED91FC91EF80F88409851A8592
:102AD00092014D815E816B817C81898D9A8D0995F2
:102AE00090CF2F8138852615370509F48ACF31E03C
:102AF000B31207C0A31205C01C96ED91FC9193017F
:102B000078CF1E96ED91FC917301E0CF6B857C85AB
:102B1000641975090684F785E02D73010F851889FE
:102B20009201A401898D9A8D0995A9CFF901349656
:102B30009491329745915491D91AB7E0DB9E400D9C
:102B4000511D1124F901259134913C8B2B8BFA01F5
:102B500025903490FA013296749031963491398BE5
:102B6000329664903196449041E04C1518F04A1525
:102B700008F07FC0662D062C000C770B7C836B83DE
:102B8000842D042C000C990B9E838D83A98DBA8D06
:102B9000ED91FC9111970284F385E02DCD0109950B
:102BA000512CD12CC12CEA2DF0E0FA87E9872B2D8E
:102BB00030E03C872B87A401440D511D47FC5A95FA
:102BC000588F4F8B69817A81660D711D67FC7A95EC
:102BD0007E876D877989C71608F051CF2C2D30E09C
:102BE0004D815E81420F531FA985BA854A9FC0015E
:102BF0004B9F900D5A9F900D1124FC01E80DF91D7B
:102C0000F88BEF87852D612C4F89588D420F531F0C
:102C10005E8B4D8B671408F050C044244394480EDB
:102C2000877041F4C1010196EB89FC89E20DF31D27
:102C3000D4901C01D7FE19C0A98DBA8DED91FC91DD
:102C4000662D70E0B1E0BB1219C0AB1217C02D8524
:102C50003E85620F731F0484F585E02D2F81388532
:102C60004D895E89898D9A8D0995DD0C6394842D3B
:102C7000D1CF1E821D821C821B8288CF4B815C813A
:102C8000640F751FAB85BC856A9FC0016B9F900D5B
:102C90007A9F900D112469817A81680F791F0684CB
:102CA000F785E02DEF80F88409851A859D014F8511
:102CB0005889898D9A8D0995D8CF570CC3948ACF9E
:102CC0006A960FB6F894DEBF0FBECDBFDF91CF91ED
:102CD0001F910F91FF90EF90DF90CF90BF90AF903A
:102CE0009F908F907F906F905F904F903F902F902C
:102CF00008958F929F92AF92CF92EF92FF920F938F
:102D00001F93CF93DF93EC01262F898D9A8D009727
:102D100009F051C06A30D1F41D861C868D8948E0C7
:102D2000849F900111248E859F85820F931F9F871A
:102D30008E8781E090E0DF91CF911F910F91FF90FE
:102D4000EF90CF90AF909F908F9008956D3089F362
:102D5000CC88AD888F898823C1F08C859D8536E02D
:102D6000C39E800D911D1124488559854817590728
:102D700064F44E855F851D861C8638E0A39EC001E5
:102D80001124840F951F9F878E87EA88FB88088906
:102D900019894E855F856C857D85CE010E9454140E
:102DA0002C898C859D8546E0249F800D911D1124E2
:102DB0009D878C87BECF6A3069F41D861C86FC0116
:102DC0003896E4912D898E859F85E29F800D911D17
:102DD0001124ADCF6D3009F4ACCFFC0134963491A1
:102DE000631708F4A6CF3296E491E61708F4A1CF52
:102DF000FC01329685909490462F431B342F47E078
:102E0000349F800C911C1124F40132963491319638
:102E1000E4913323A9F1EE2399F1CC88F40135969E
:102E2000E491AD884F89442301F10E2E000CFF0B75
:102E3000E30FF11DCE9EA001CF9E500D11246C8595
:102E40007D85460F571F68857985641775076CF473
:102E50004E855F851D861C86FC013896E491AE9EEA
:102E6000400D511D11245F874E87EA88FB88088931
:102E700019894E855F856C857D85CE010E9454142D
:102E8000F4013496E4912C898C859D85E29F800D18
:102E9000911D11248DCF6F927F928F929F92AF924E
:102EA000BF92CF92DF92EF92FF920F931F93CF9337
:102EB000DF93EC016B015A0139014801E881F98186
:102EC0000284F385E02D0995E881F9810288F38970
:102ED000E02D87019301A501B601CE010995A50159
:102EE000480D591D41505109E881F9810288F38943
:102EF000E02D9301B601CE010995E881F9810088A2
:102F0000F189E02D9401A501B601CE010995C60C09
:102F1000D71CB60161507109E881F9810088F189F7
:102F2000E02D9401A501CE010995E881F98106887B
:102F3000F789E02DCE01DF91CF911F910F91FF9086
:102F4000EF90DF90CF90BF90AF909F908F907F9049
:102F50006F9009946F927F928F929F92AF92BF92DF
:102F6000CF92DF92EF92FF920F931F93CF93DF9355
:102F70005C01EB016A01490138018701DC01ED9137
:102F8000FC916217730719F5641675062CF0962DDF
:102F9000872D3A01C92ED82E9601261937092F5FA1
:102FA0003F4F048CF58DE02DA301BE01C5010995AD
:102FB000DF91CF911F910F91FF90EF90DF90CF9015
:102FC000BF90AF909F908F907F906F90089546151F
:102FD000570591F42617370724F0892D4B01C22F8E
:102FE000D82F9E01281939092F5F3F4F068CF78D86
:102FF000E02DA601B401DACF0284F385E02D099516
:10300000D501ED91FC910488F589E02D83019401AF
:10301000A601BE01C5010995D501ED91FC91068877
:10302000F789E02DC501DF91CF911F910F91FF909E
:10303000EF90DF90CF90BF90AF909F908F907F9058
:103040006F900994EF92FF920F931F93DC011A96F1
:103050000D911C911B9718962D913C911997ED910C
:10306000FC9100A0F1A1E02D7B0150E040E070E078
:1030700060E009951F910F91FF90EF9008954F9296
:103080005F926F927F928F929F92AF92BF92CF92F8
:10309000DF92EF92FF920F931F93CF93DF936C0118
:1030A0002B015A0139014801DC01ED91FC910284A8
:1030B000F385E02D0995E201640C751CD601ED91B4
:1030C000FC91C615D7055CF40088F189E02D8701D5
:1030D0009401A501BE01C60109952196EFCF06888E
:1030E000F789E02DC601DF91CF911F910F91FF90DD
:1030F000EF90DF90CF90BF90AF909F908F907F9098
:103100006F905F904F9009948F929F92AF92BF9271
:10311000CF92DF92EF92FF920F931F93CF93DF93A3
:10312000EC015B014A016901E881F9810284F385C0
:10313000E02D099595012C0D3D1D21503109E881A7
:10314000F9810488F589E02D78018401A401B50195
:10315000CE010995E881F9810688F789E02DCE0135
:10316000DF91CF911F910F91FF90EF90DF90CF9063
:10317000BF90AF909F908F9009948F929F92AF9243
:10318000BF92CF92DF92EF92FF920F931F93CF9354
:10319000DF93EC015B014A0169017801E881F98163
:1031A0000284F385E02D0995C80CD91C86010150D5
:1031B0001109E881F9810488F589E02D9501A401C0
:1031C000B501CE010995E881F9810688F789E02DDE
:1031D000CE01DF91CF911F910F91FF90EF90DF9083
:1031E000CF90BF90AF909F908F900994EF92FF92F5
:1031F0000F931F93DC01ED91FC9100A0F1A1E02D54
:1032000009951F910F91FF90EF9008950F931F93D1
:10321000DC01ED91FC91068CF78DE02D09951F9155
:103220000F9108950F931F93DC01ED91FC91048C95
:10323000F58DE02D09951F910F910895DC01ED9119
:10324000FC910084F185E02D09942F923F924F92DA
:103250005F926F927F928F929F92AF92BF92CF9226
:10326000DF92EF92FF920F931F93CF93DF9300D0E3
:1032700000D000D0CDB7DEB73C016A013E832D837C
:10328000FC82EB825801A41AB50AB7FE03C0B194C0
:10329000A194B1088D809E80861A970A97FE03C07C
:1032A0009194819491088A149B045CF0902F812F53
:1032B0000D811E819D838E839C2D8D2D6B01692F29
:1032C000782F0C151D055CF09D818E817E836D83AA
:1032D000692F782F902F812F8601C92ED82E1601A5
:1032E000201A310A2B012D813E81421A530A57FEC2
:1032F00003C0519441945108710137FE03C03FEF60
:10330000E31AF30AF594E7948D819E818617970757
:103310005CF5A1E0B0E0BA83A983C016D1064CF1F8
:10332000D301ED91FC910484F585E02D2B813C8146
:10333000A8016D817E818A149B041CF04D815E8101
:10334000B801C3010995E418F508F7FE0AC02D81FC
:103350003E8189819A81280F391F3E832D83E20C9B
:10336000F31C0F5F1F4FD9CF2FEF3FEF3A83298315
:10337000D4CF26960FB6F894DEBF0FBECDBFDF9137
:10338000CF911F910F91FF90EF90DF90CF90BF9062
:10339000AF909F908F907F906F905F904F903F90F5
:1033A0002F900895089590E080E0089590E0FC014A
:1033B000EB52FC4F20812617B9F0FC01E054FC4F82
:1033C0002083FC01EE52FC4F6083FC01ED53FC4F67
:1033D0004083880F991F880F991FFC01EA53FC4F07
:1033E000108211821282138208958FEF9FEF9093C3
:1033F000C3048093C2049093C1048093C00481E00D
:103400008093C4048093C5048091C9049091CA0438
:10341000892B49F08091BE049091BF040697909348
:10342000BF048093BE041092CA041092C904089588
:10343000DC01ED91FD918081ED91FD919081ED9107
:10344000FD916C9163708E2309F064609F2309F0F5
:103450006860E5E3FAE1E60FF11D659565956D930A
:103460006D917D918D919D91099423C01AC012C0D8
:1034700016C010C01EC009C014C013C006C019C0B9
:1034800009C00DC007C00DC014C06250704080401C
:1034900090400BC0615070408040904006C06E5F0D
:1034A00001C06F5F7F4F8F4F9F4F9E938E937E9390
:1034B0006E93089580912202909123020C94181A21
:1034C00080912002909121020C94181A80911E0282
:1034D00090911F020C94181A80911C0290911D0269
:1034E0000C94181AFB0101900020E9F73197AF0105
:1034F000461B570BDC01ED91FC910280F381E02D1E
:1035000009948F929F92AF92BF92EF92FF920F9386
:103510001F93CF93DF93CDB7DEB7A1970FB6F89483
:10352000DEBF0FBECDBF7C01FA01CB0119A2223054
:1035300008F42AE08E010F5D1F4F822E912CB12CD2
:10354000A12CBF01A50194010E942F36F901CA01E7
:103550006A300CF5605DD8016E938D01232B242B0E
:10356000252B79F790E080E0109721F0BD01C7018D
:103570000E94721AA1960FB6F894DEBF0FBECDBF9F
:10358000DF91CF911F910F91FF90EF90BF90AF907F
:103590009F908F900895695CDECFCF92DF92EF927B
:1035A000FF920F931F93CF93DF93EC016A017B018E
:1035B000E881F9810190F081E02D6DE209958C019F
:1035C00044275527BA014C195D096E097F092AE085
:1035D000CE010E94811A800F911FDF91CF911F9120
:1035E0000F91FF90EF90DF90CF9008950F931F936E
:1035F000CF93DF93EC0177FF0FC00E94CD1A8C01AF
:103600006BE671E0CE010E94721A800F911FDF916C
:10361000CF911F910F9108952AE00E94811AEFCF58
:103620000F931F93CF93DF938C01D0E0C0E061151F
:10363000710519F00E94721AEC016BE671E0C80185
:103640000E94721A8C0F9D1FDF91CF911F910F91D5
:1036500008956115710511F00C94721A90E080E0E4
:1036600008952F923F924F925F926F927F928F9226
:103670009F92AF92BF92CF92DF92EF92FF920F9301
:103680001F93CF93DF93CDB7DEB72D970FB6F89486
:10369000DEBF0FBECDBF7B876A875A01E090B804BA
:1036A000F090B9042091C9043091CA043D872C8759
:1036B0000091C7041091C404612F70E07F836E8372
:1036C00076E0179F300111242C5F3F4F3B832A8304
:1036D0002C853D852A5F3F4F3D832C836C857D85FE
:1036E0006E5F7F4F798768872C843D8478E0270E52
:1036F000311C4C01D70150E040E02FEF3FEFF401C7
:10370000D1904F01DD2009F485C06C857D85672B44
:1037100009F45FC07AE0D71205C0F101449150E08E
:1037200040E0EDCFFDE0DF1651F3EA81FB81C4906C
:10373000EC81FD816491DC1410F36D1500F3E885D4
:10374000F98565917491DC18F7E0DF9E600D711DBD
:103750001124FB01329654903196E491FB0134968A
:1037600044903196D490D9823196E4910023C9F0E7
:10377000C52CD12C6981C60ED11C67FDDA94EE816F
:10378000FF81CE9EB001CF9E700DDE9E700D112484
:10379000640F751FE616F70624F4F101449150E01A
:1037A00040E069816103F0011124E40FF51FEA177D
:1037B000FB070CF4DF01519EE00DF11D1124319740
:1037C0002E173F070CF49F01419E400D511D1124FF
:1037D00096CF7AE0D71609F4A2CFEDE0DE1609F411
:1037E0008ECF002341F0B301640F751FE616F70674
:1037F00014F450E040E0B301640F751FFB013197F2
:103800002E173F070CF49F014A175B070CF4DA01EF
:10381000AB0175CF2A173B078CF12A1B3B0B2F5F9F
:103820003F4F369527956A857B85621B730B6A1B14
:103830007B0B7093BD046093BC04B092BF04A09254
:10384000BE04BC0180EB94E02D960FB6F894DEBF69
:103850000FBECDBFDF91CF911F910F91FF90EF90E1
:10386000DF90CF90BF90AF909F908F907F906F90A0
:103870005F904F903F902F900C94291BB0E0A0E0F8
:1038800030E020E0CECF2F923F924F925F926F9226
:103890007F928F929F92AF92BF92CF92DF92EF92E0
:1038A000FF920F931F93CF93DF9300D000D0CDB73B
:1038B000DEB75C016B015C834B833A83298348014B
:1038C000F901808128E2622E22E4722E882319F009
:1038D000612C8CEF782EEFE18E16E8EF9E0689F1D1
:1038E00080EB94E00E945D11740104E110E02B81F3
:1038F0003C8126503109A6011501F3E02F0E311C41
:10390000B10180EB94E00E94ED0F0DE010E021E0AA
:1039100043E050E0260183E0480E511CB2018B8148
:103920009C818A0D9B1D04970E94D20E22E043E0E9
:1039300050E0B201C1010E94D20E80EB94E00E94DF
:103940006012830123E130E04B815C81B601C50147
:103950000E946B1224E130E04B815C81B601C5010D
:103960000E946B120E94F5198FEF9FEF9093C30492
:103970008093C2049093C1048093C004A6014A5F5F
:103980005F4F6B817C81759567956A0D7B1D6F5FBD
:103990007F4F89819A810F900F900F900F90DF9148
:1039A000CF911F910F91FF90EF90DF90CF90BF903C
:1039B000AF909F908F907F906F905F904F903F90CF
:1039C0002F900C94311BAC01425F5F4FFC0160856E
:1039D000718590E080E00C94E7320E9475361F9369
:1039E000CF93DF9385ED8093BC0080913B03909152
:1039F0003C03A0913D03B0913E030796A11DB11D6C
:103A000023E0B695A795979587952A95D1F72091AC
:103A1000BC0024FD03C01092830352C040913B03BD
:103A200050913C0360913D0370913E03452B462B22
:103A3000472B69F30097A105B10541F025E32A95CD
:103A4000F1F700000197A109B109E1CF80913A0394
:103A5000C1E0C0933903882399F1D091B800109147
:103A6000BA008091BC008A7B8093BC0060E082E059
:103A70000E94680960E083E00E9468091092830355
:103A8000C09385031092840361E082E00E9468097C
:103A900061E083E00E9468098091B9008E7F809385
:103AA000B9008091B9008D7F8093B90088E480933C
:103AB000B80085E48093BC001093BA00D093B8009E
:103AC000DF91CF911F910895CF92DF92EF92FF92F5
:103AD0000F931F93CF93DF93EC016A017B01C11415
:103AE000D104E104F10431F4C12C42E1D42E4AE7BF
:103AF000E42EF12C8FA987FD07C061E00E94960992
:103B000061E08FA90E94680961E088AD0E94960972
:103B100061E088AD0E9468098DA981118EC040E0E6
:103B200052E16AE770E0C416D506E606F70640F4EF
:103B300076956795579547958F5F8630A1F787E013
:103B4000982F906A969599A3809581708AA31BA25D
:103B50001CA21DA21EA21FB7F894809137038111E9
:103B600027C0E7E0FEE08491EAEDFDE09491E82FC4
:103B7000F0E0EE0FFF1FE45EF24FA591B491EC91DF
:103B8000E92321F461E081E10E94680961E081E1BB
:103B90000E9496098CB580618CBD8CB580648CBD0B
:103BA00061E08FE00E94960961E080E10E94960941
:103BB000809137038F5F809337031FBF8EA987FDE6
:103BC00021C061E00E94960961E08EA90E94680907
:103BD00064E670E080E090E00E94F70960E08EA962
:103BE0000E94680964E670E080E090E00E94F709B6
:103BF00061E08EA90E94680968EC70E080E090E0C6
:103C00000E94F7090AEE1CE098012F5F3F4FF80170
:103C10006491662309F45DC00E5F1F4FF901249182
:103C2000F22EE894F7F86F3F29F02F2DA801CE016E
:103C30000E946F110F0D111DE7CF06EF1DE0F12C53
:103C40008130B9F461E08AA50E94960960E08AA5F6
:103C50000E94680961E08CA50E94960960E08CA52D
:103C60000E9468098BA587FDA9CF60E00E94960994
:103C7000A5CFF8018491E82FF0E0EE0FFF1FE85187
:103C8000F24F859194912F8D38A12817390741F46F
:103C900061E08F2D0E94960960E08F2D0E946809D7
:103CA000F3940F5F1F4FFFE1FF12E3CF61E08EA59A
:103CB0000E94960961E08EA50E9468098FA587FD84
:103CC0007DCF61E00E94960961E08FA50E9468099E
:103CD00075CFE881F981008CF18DE02D60E0CE0197
:103CE000DF91CF911F910F91FF90EF90DF90CF90D8
:103CF0000994EF92FF920F931F93CF93DF9300D01D
:103D000000D000D0CDB7DEB7CE0101967C0110E027
:103D100000E0C8010E944B33F70181937F010F5FE0
:103D20001F4F06301105A9F789818936D9F48A8198
:103D30008436C1F48B818093BA038C818093BB035A
:103D40008D818093BC031092BD0326960FB6F89424
:103D5000DEBF0FBECDBFDF91CF911F910F91FF90BE
:103D6000EF9008956EE671E08AEB93E026960FB629
:103D7000F894DEBF0FBECDBFDF91CF911F910F91A1
:103D8000FF90EF900C9483362F923F924F925F9268
:103D90006F927F928F929F92AF92BF92CF92DF925B
:103DA000EF92FF920F931F93CF93DF9300D000D039
:103DB000CDB7DEB780911E018C3009F424C3833661
:103DC00009F4B8C4883009F007C380912C0310921D
:103DD0002C03882301F1F12CE12C04E110E028E20E
:103DE00030E050E040E070E060E080EB94E00E9462
:103DF000190D8091240203E619E3811102C00FE13D
:103E000018EF20E532E048E250E070E060E090E03A
:103E100080E00E94431C80912D0310922D03882383
:103E200001F1F12CE12C04E110E028E230E050E057
:103E300040E06CE270E080EB94E00E94190D80910C
:103E4000250203E619E3811102C00FE118EF24E611
:103E500032E048E250E070E060E08CE290E00E94E6
:103E6000431C80912E0310922E03882301F1F12C24
:103E7000E12C04E110E028E230E050E040E068E5A9
:103E800070E080EB94E00E94190D8091260203E619
:103E900019E3811102C00FE118EF28E732E048E290
:103EA00050E070E060E088E590E00E94431C809163
:103EB0002F0310922F038823A9F1F12CE12C01E1AB
:103EC00010E020E830E04CE150E070E060E080EB92
:103ED00094E00E94190D8FEF9FEF9093C30480939D
:103EE000C2049093C1048093C0048091C90490914E
:103EF000CA04892B49F48091BE049091BF040696B0
:103F00009093BF048093BE0481EE97E09093CA041F
:103F10008093C90448E250E06FE370E08CE892E0DF
:103F20000E94311B80913003109230038823A9F145
:103F3000F12CE12C01E110E020E830E042E350E018
:103F400070E060E080EB94E00E94190D8FEF9FEF2E
:103F50009093C3048093C2049093C1048093C004DF
:103F60008091C9049091CA04892B49F48091BE04C0
:103F70009091BF0406969093BF048093BE0481EE97
:103F800097E09093CA048093C9044EE350E06FE336
:103F900070E080EA92E00E94311B8091460210920C
:103FA00046028823F1F1C0903102D0903202F12C08
:103FB000E12C07E010E02FE130E041E650E061E362
:103FC00070E080EB94E00E94190D2FEFC216D2062C
:103FD00099F468E272E484E390E00E94271368E2B7
:103FE00072E480E490E00E94271368E272E48CE4BB
:103FF00090E00E94271315C01C141D0494F4C1FE08
:1040000012C184E390E00E941014C2FE13C180E448
:1040100090E00E941014C3FE14C18CE490E00E9452
:1040200010148091450210924502882309F457C06C
:10403000C0902F02D090300281E0C81AD108F12C34
:10404000E12C09E010E02FE130E040E650E068E0CC
:1040500070E080EB94E00E94190DD7FC40C038E27C
:10406000E32E32E4F32E00E610E026E230E048E6EC
:1040700050E068E070E080EB94E00E94AA1708E648
:1040800010E027E130E040E650E067E170E080EBCF
:1040900094E00E94AA17B601DD0C880B990B0E94D0
:1040A0007D3420E030E44CE156E40E94D33320E03C
:1040B00030E040EF51E40E944D3520E030E040E038
:1040C00051E40E9462330E944534EE24EA94FE2CAF
:1040D0009B0140E650E080EB94E00E94AA1780919B
:1040E000470210924702882309F4AEC0A090330221
:1040F000B090340221E0A21AB1082090350230902D
:104100003602F12CE12C09E010E020E230E040E63C
:1041100050E06AE570E080EB94E00E94190DB7FC76
:1041200099C0B501BB0C880B990B0E947D3420E02F
:1041300030E44CE156E40E94D33320E030E044EB1D
:1041400052E40E944D3525E33AEF4EE85CE30E94CD
:104150004D354B015C0198E2E92E92E4F92E00E620
:1041600010E022E630E040E650E06AE570E080EBE7
:1041700094E00E94AA1708E610E02AE530E040E645
:1041800050E06AE570E080EB94E00E94AA17C50158
:10419000B4010E94BA356B017C01C501B4010E94D3
:1041A000CE332B013C0120E030E040EE50E4C7016B
:1041B000B6010E944D3520E030E042EC52E40E940E
:1041C00062330E9445344B0120E030E040EE50E481
:1041D000C301B2010E944D3520E030E046EB52E4CD
:1041E0000E9462330E944534EE24EA94FE2C84013E
:1041F0009B0141E650E06BE570E080EB94E00E94AB
:10420000AA170E94F5194AE0BE016F5F7F4FC101F6
:104210000E940E3341E650E060E770E0CE01019667
:104220000E94311B17C060E477E084E390E00E94B5
:104230002713EBCE60E477E080E490E00E94271340
:10424000EACE60E477E0D3CE809148021092480233
:1042500081114CCF8091350310923503882301F1F1
:10426000F12CE12C04E110E02EE330E047E450E0D3
:1042700070E060E080EB94E00E94190D80912D02C7
:1042800003E619E3811102C00FE118EF24E033E0E7
:104290004EE350E067E470E090E080E00E94431C51
:1042A0008091360310923603882301F1F12CE12C22
:1042B00004E110E02EE330E047E450E062E470E017
:1042C00080EB94E00E94190D80912E0203E619E321
:1042D000811102C00FE118EF28E133E04EE350E016
:1042E00067E470E082E490E00E94431C8091310317
:1042F000109231038823A9F1F12CE12C01E110E0A7
:1043000020E430E04FE650E070E060E080EB94E0C5
:104310000E94190D80E09CEF9093C3048093C20427
:104320009093C1048093C0048091C9049091CA0401
:10433000892B49F48091BE049091BF040696909316
:10434000BF048093BE0481EE97E09093CA048093EB
:10435000C9044BE750E06FE170E084EB92E00E940B
:10436000311B80913203109232038823A9F1F12C82
:10437000E12C01E110E020E430E04FE650E06FE393
:1043800070E080EB94E00E94190D80E09CEF909328
:10439000C3048093C2049093C1048093C0048091AD
:1043A000C9049091CA04892B49F48091BE0490916C
:1043B000BF0406969093BF048093BE0481EE97E0FD
:1043C0009093CA048093C9044BE750E06FE570E016
:1043D00088EC92E00E94311B0F900F900F900F908D
:1043E000DF91CF911F910F91FF90EF90DF90CF90D1
:1043F000BF90AF909F908F907F906F905F904F9005
:104400003F902F90089580912C0310922C038823C5
:10441000A9F1F12CE12C01E110E020E830E04FEFB0
:104420005FEF70E060E080EB94E00E94190D80E0A7
:104430009CEF9093C3048093C2049093C104809333
:10444000C0048091C9049091CA04892B49F48091D9
:10445000BE049091BF0406969093BF048093BE045F
:1044600081EE97E09093CA048093C9044CE050E039
:104470006FE370E080E592E00E94311B81EE97E0EF
:104480009093CA048093C9048FEF9FEF9093C30465
:104490008093C2049093C1048093C0048AE090E0AA
:1044A0009093BD048093BC0484E290E09093BF0499
:1044B0008093BE0480912D0310922D03882331F048
:1044C00064E672E080EB94E00E94291B8AE090E0B1
:1044D0009093BD048093BC0486E390E09093BF0466
:1044E0008093BE0480912E0310922E03882331F016
:1044F00068E772E080EB94E00E94291B8AE090E07C
:104500009093BD048093BC0488E490E09093BF0432
:104510008093BE0480912F0310922F03882331F0E3
:104520006CE872E080EB94E00E94291B8AE090E046
:104530009093BD048093BC048AE590E09093BF04FF
:104540008093BE048091300310923003882331F0B1
:1045500060EA72E080EB94E00E94291B8AE090E020
:104560009093BD048093BC048CE690E09093BF04CC
:104570008093BE048091310310923103882331F07F
:1045800064EB72E080EB94E00E94291B8AE090E0EB
:104590009093BD048093BC048EE790E09093BF0499
:1045A0008093BE048091320310923203882331F04D
:1045B00068EC72E080EB94E00E94291B8091450238
:1045C00010924502882309F447C0F12CE12C01E642
:1045D00010E025E030E04CE150E061E070E080EB7D
:1045E00094E00E94190DC0902F02D0903002D7FCA9
:1045F00033C00E94F51980E09CEF9093C304809330
:10460000C2049093C1048093C00482E18C9D700128
:104610008D9DF00C11248CE1E80EF11C1092BD046C
:104620001092BC04F092BF04E092BE0462E771E015
:1046300080EB94E00E94291B81E090E09093BD0400
:104640008093BC04F092BF04E092BE0462E771E084
:1046500080EB94E00E94291B809147021092470250
:10466000882309F460C0F12CE12C0FE710E02FE75C
:1046700030E044E150E06FE770E080EB94E00E94AE
:10468000AA176091310270913202072E000C880B3C
:10469000990B0E947D3420E030E048EC52E40E9407
:1046A000D33320E030E046ED52E40E944D350E94C5
:1046B00045346B016091330270913402072E000C77
:1046C000880B990B0E947D3420E030E048EC52E4E6
:1046D0000E94D3334B015C016BE670E06C197D09DD
:1046E000072E000C880B990B0E947D349B01AC01B6
:1046F000C501B4010E944D350E94453424E1C20E2B
:10470000D11C8601060F171FAB014C5E5F4FE12CD9
:104710008CEFF82E2FE730E06FE770E080EB94E04D
:104720000E94AA1759CE809146021092460281112A
:104730009ACF52CEF12CE12C0EE010E022E330E0D3
:1047400048E050E06EE270E080EB94E00E94190DCA
:104750002EE630E046E650E06AE070E080EB94E060
:104760000E94190D8EE290E09093BD048093BC04EA
:1047700084E190E09093BF048093BE044091BE0317
:104780005091BF0370E060E02AE080EB94E00E946B
:10479000811A6BE671E080EB94E00E94721A8AE065
:1047A00090E09093BD048093BC0482E790E09093E6
:1047B000BF048093BE0440911A0150911B01609187
:1047C0001C0170911D0177FF3BC080EB94E00E94BB
:1047D000CD1A89E490E09093BD048093BC0482E7F5
:1047E00090E09093BF048093BE04409116015091D5
:1047F0001701609118017091190180EB94E00E94FB
:10480000F61AF090BE03F3FE05C048E06FEF80E0BB
:104810000E94D619F4FE05C048E06FEF81E00E94C7
:10482000D619F5FE05C048E060E080E00E94D61988
:10483000F6FED2CD48E060E081E00E94D619CCCDF2
:104840002AE080EB94E00E94811AC3CFCF93DF93DC
:1048500070E060E080EB94E00E94221880911E01DD
:104860008430D9F0833609F03FC08AE090E090931D
:10487000BD048093BC048AE590E09093BF048093CC
:10488000BE0464E771E080EB94E00E94291B6BE7B3
:1048900071E080EB94E00E94291B88E292E49093FF
:1048A000C3048093C2049093C1048093C004809198
:1048B000C9049091CA04892B49F48091BE04909157
:1048C000BF0406969093BF048093BE0481EE97E0E8
:1048D0009093CA048093C90445E450E06FE370E00C
:1048E00081E891E00E94311BE4E2F2E02FE232E045
:1048F000CCE2D3E045E452E081E01192D9011D926F
:104900001D929D018993DA018D93AD01B2E0EF32E2
:10491000FB0799F7DF91CF910C94C41ECF92DF92E1
:10492000EF92FF920F931F93CF93DF93EC010E94BE
:10493000AE0A6093D8037093D9038093DA039093FF
:10494000DB03CE010E94E31C8C0167E871E00E944A
:104950007A36892B11F5CE010E94E31C8C016CE89C
:1049600071E00E947A36892B69F488E080931E01F9
:10497000DF91CF911F910F91FF90EF90DF90CF903B
:104980000C94262462E971E0C8010E947A3667E936
:1049900071E0892BD9F58CE0E9CF6FE971E0C801AE
:1049A0000E947A36892B09F043C0CE010E94E31C95
:1049B0007C01CE010E94E31C8C01C7010E94C93218
:1049C0008B3010F501151105E1F0F801208122234B
:1049D000C1F0EC01DD27F4E18F9FC0011124B80183
:1049E000805B9D4F0E948336C45DDC4F81E08883ED
:1049F000DF91CF911F910F91FF90EF90DF90CF90BB
:104A000008950DE611E0E5CF63EA71E088819981B0
:104A10000E94101B6FEC71E088819981DF91CF912A
:104A20001F910F91FF90EF90DF90CF900C94101B8F
:104A30006BEA71E0C8010E947A36892B21F5CE011C
:104A40000E94E31C8C01CE010E94E31C7C01C80182
:104A50000E94C9328C01C7010E94C9329C010B30EF
:104A600078F41127F801EC5DFD4F91E0232B09F458
:104A700090E09083045D1C4F81E0F8018083B8CF03
:104A80006FEA71E0C3CF67EB71E0C8010E947A362C
:104A9000892BF9F4CE010E94E31C8C01CE010E9407
:104AA000E31C7C01C8010E94C9328C01C7010E942D
:104AB000C9320B3058F41127F801EE0FFF1FE15DEA
:104AC000FD4F918380830B5B1D4FD6CF6BEB71E065
:104AD0009DCF63EC71E0C8010E947A36892B09F002
:104AE00099CFCE010E94E31C0E94C932E82ECE016C
:104AF0000E94E31C0E94C9326C01CE010E94E31C9B
:104B00000E94C9328C01CE010E94E31CCE010E949A
:104B1000E31C0E94C932F82EE1101AC0FFEFCF1635
:104B2000DF0629F0482F6C2D80E00E94D6190F3F38
:104B3000100709F45DCF4F2D602F81E0DF91CF91F9
:104B40001F910F91FF90EF90DF90CF900C94D619AA
:104B500067EC71E05BCF9F92AF92BF92CF92DF92F2
:104B6000EF92FF920F931F93CF93DF9300D000D06B
:104B700000D0CDB7DEB78C010E94AE0A6093D80397
:104B80007093D9038093DA039093DB03C8010E94EA
:104B9000E31C5C01C8010E94E31C7C0167ED71E02D
:104BA0000E947A36892B09F048C06CED71E0F8015B
:104BB000808191810E94291BB501F801808191813A
:104BC0000E94291B60EE71E0F801808191810E94B2
:104BD000291B64E771E0F801808191810E94291B03
:104BE0006BE771E0F801808191810E94291B6FE0E1
:104BF00072E0F801808191810E94291BF8010081F7
:104C000011818091BA03811102C00E94791E6AEB62
:104C100073E0C80126960FB6F894DEBF0FBECDBF75
:104C2000DF91CF911F910F91FF90EF90DF90CF9088
:104C3000BF90AF909F900C94101B69EE71E0C7017C
:104C40000E947A36892BB1F5C8010E94E31C26E048
:104C5000E4EFF1E0DE01119601900D922A95E1F763
:104C6000FC0120812B8321812C8382818D83CE01C5
:104C700001966C01F12CE12CF60191906F01C701B6
:104C80000E944B33981621F0692DC7010E945333BF
:104C9000FFEFEF1AFF0A86E0E816F10469F71092B9
:104CA000BA036CED71E0F801808191810E94291BAB
:104CB000B50198CF6CEE71E0F80180819181AACFA7
:104CC0001F920F920FB60F9211248F939F93809192
:104CD000E1009091E100937F9093E10083FF0FC08A
:104CE0001092E90091E09093EB001092EC0092E3B7
:104CF0009093ED001092FD0398E09093F00082FFF6
:104D000022C093E09093E9009091F200992319F06A
:104D10009AE39093E8009091B703992341F0909122
:104D2000B70391509093B703911101C05D98909192
:104D3000FC03992341F09091FC0391509093FC0364
:104D4000911101C0289884FF18C08091E2008E7EE6
:104D500081608093E2008091E1008F7E8093E1008A
:104D60008091B8038E7E80618093B8039F918F916C
:104D70000F900FBE0F901F90189580FFF7CF809176
:104D8000E2008E7E80618093E2008091E1008E7E61
:104D90008093E1008091B8038E7E8160E5CF1F9201
:104DA0000F920FB60F921124CF92DF92EF92FF92E3
:104DB0000F931F932F933F934F935F936F937F9323
:104DC0008F939F93AF93BF93EF93FF93CF93DF9313
:104DD000CDB7DEB76C97DEBFCDBF1092E9008091F2
:104DE000E80083FF25C068E0CE0145960E943808A0
:104DF00082EF8093E8008D8987FF39C09091E800A9
:104E000090FFFCCF982F907609F034C19E894F898E
:104E1000588D2F89F88C911131C0803861F58091BF
:104E2000B9038093F1001092F1008EEF8093E800B7
:104E30006C960FB6F894DEBF0FBECDBFDF91CF9159
:104E4000FF91EF91BF91AF919F918F917F916F9162
:104E50005F914F913F912F911F910F91FF90EF9094
:104E6000DF90CF900F900FBE0F901F9018959EEF80
:104E70009093E800C7CF1092F100D5CF913059F44C
:104E80008111D3CF4130510581F68091B9038D7FD7
:104E90008093B903CACF933049F48111C6CF413012
:104EA000510519F68091B9038260F2CF953041F433
:104EB0008091E80080FFFCCF20682093E300B5CF0D
:104EC000963009F0A9C00B8D1C8D22E01092E900EC
:104ED0001092B5031092B403F2122EC01092B303D5
:104EE0001092B2030E9407081F8299E09983FA8208
:104EF00091E09E8390EA98879AEF99872091B40376
:104F00003091B503275F3F4F3C832B838D831092F5
:104F1000E9001092B5031092B4031093B303009309
:104F2000B20349E050E0BE016F5F7F4F80E00E9416
:104F3000E1070E94070879CF1093B3030093B203EF
:104F40000E949F07DC0112960D911C91011511051D
:104F500009F451C1D801ED91FC910480F581E02D57
:104F6000BE016B5E7F4FC8010995009709F03EC1F5
:104F7000F80100851185EACFF3E0FF120EC08F899A
:104F8000882309F440C0823061F440E86DE08CE988
:104F90009DE00E94292B811148CF81E28093EB0094
:104FA00047CF813029F440E86BE080E99DE0F1CF04
:104FB000833099F70E949F07DC011296ED90FC90D8
:104FC0008E010F5F1F4F6801E114F10479F0D701E2
:104FD000ED91FC910680F781E02DB801C70109959C
:104FE000080F111DF701E084F184EECFD8011C9267
:104FF000F60101900020E9F73197BF016C197D0996
:1050000040E0C601C6CF6AE77DE0FB01449150E075
:1050100080E80E94E10709CF973009F4BECF9830AD
:1050200021F481E08093F10000CF993009F0FDCEAA
:10503000837009F0B2CFE1E2F1E081E031E096E384
:105040002191222371F08093E9003093EB00DF017E
:1050500011972C912093EC009093ED008F5F873097
:1050600079F78EE78093EA001092EA008F898093A7
:10507000FD03DBCE8B8D9C8D1092E9001092B50361
:105080001092B4039093B3038093B203898D81117E
:1050900092C08E899D89913A49F4813209F07DCF81
:1050A00047E050E06EE071E080E0B3CF913209F06C
:1050B00074CF833269F48F89988DB0E0A0E080933B
:1050C0000A0190930B01A0930C01B0930D01ADCE9A
:1050D000803269F48091E80082FFFCCF67E08EE0C7
:1050E00091E00E9438088BEF8093E8009ECE8232D8
:1050F00009F09BCE8F8980931501EEEFFFE7859134
:1051000094918B3F9C4D51F1E0E0F8E080910E01CD
:1051100090910F01A0911001B0911101803B94403A
:10512000A105B105F1F48091150180FD1AC0EE3F93
:105130008AE0F80789F587E797E791838083809174
:1051400060008093B60388E19BE00FB6F894A895C1
:10515000809360000FBE9093600067CEEEEFFAE0A0
:10516000D5CF808191818737974709F05ECEA8958A
:10517000809160008861809360008091B603809385
:105180006000EE3F2AE0F20789F08091FE0A9091DC
:10519000FF0A9183808349CE808191818737980768
:1051A00051F29093FF0A8093FE0AC5CF1092FF0A36
:1051B0001092FE0A3ACE0E949F07DC0112960D91D2
:1051C0001C910115110509F4E8CED801ED91FC916F
:1051D0000190F081E02DBE016B5E7F4FC801099503
:1051E000811123CEF80100851185EBCF1816190621
:1051F0000CF41BCED2CEF1E0FF12BECE6EE77DE006
:1052000004CF1F920F920FB60F9211242F933F934A
:105210008F939F93AF93BF938091AA039091AB0319
:10522000A091AC03B091AD033091A90323E0230F0B
:105230002D3758F50196A11DB11D2093A903809328
:10524000AA039093AB03A093AC03B093AD038091FA
:10525000AE039091AF03A091B003B091B10301965A
:10526000A11DB11D8093AE039093AF03A093B00333
:10527000B093B103BF91AF919F918F913F912F91C7
:105280000F900FBE0F901F90189526E8230F0296DF
:10529000A11DB11DD2CF1F920F920FB60F921124F4
:1052A0002F933F934F935F936F937F938F939F932E
:1052B000AF93BF93EF93FF93E0910801F091090141
:1052C0000995FF91EF91BF91AF919F918F917F9140
:1052D0006F915F914F913F912F910F900FBE0F9063
:1052E0001F9018951F920F920FB60F9211242F93B3
:1052F0003F934F935F936F937F938F939F93AF935E
:10530000BF93EF93FF93E0910601F0910701099598
:10531000FF91EF91BF91AF919F918F917F916F918D
:105320005F914F913F912F910F900FBE0F901F9063
:1053300018951F920F920FB60F9211242F933F933F
:105340004F935F936F937F938F939F93AF93BF938D
:10535000EF93FF93E0910401F09105010995FF910E
:10536000EF91BF91AF919F918F917F916F915F91DD
:105370004F913F912F910F900FBE0F901F90189556
:105380001F920F920FB60F9211242F933F934F93BA
:105390005F936F937F938F939F93AF93BF93EF939D
:1053A000FF93E0910201F09103010995FF91EF91C4
:1053B000BF91AF919F918F917F916F915F914F912D
:1053C0003F912F910F900FBE0F901F9018951F9235
:1053D0000F920FB60F9211242F933F934F935F9329
:1053E0006F937F938F939F93AF93BF93EF93FF93AD
:1053F000E0910001F09101010995FF91EF91BF91BA
:10540000AF919F918F917F916F915F914F913F915C
:105410002F910F900FBE0F901F9018951F920F9213
:105420000FB60F9211242F933F934F935F936F9377
:105430007F938F939F93AF93BF93EF93FF9380914D
:10544000B900887F803609F44AC0F0F5883209F443
:10545000A5C018F5803109F499C0B8F4882309F47F
:10546000F5C0883009F492C0FF91EF91BF91AF91E0
:105470009F918F917F916F915F914F913F912F916C
:105480000F900FBE0F901F901895883109F486C0B9
:10549000803251F78093820314C0803409F49BC09A
:1054A00040F48033B9F38833F9F68093820385ECB6
:1054B000AEC0803509F483C0883509F494C08834BF
:1054C00099F60E94EF1CD0CF883909F48AC038F5CC
:1054D000883729F050F4883611F0803729F683E0B8
:1054E000809383031092810355C0883809F479C0F2
:1054F000803919F0803809F0B7CF8091810380326C
:1055000008F06FC0E091810381E08E0F80938103EA
:105510008091BB00F0E0EF59FC4F80833BC0803BA3
:1055200039F0D0F4803A09F477C0883A09F09CCF7A
:1055300084E0809383031092600310925F03F0E095
:10554000E0E0099580915F0381110FC081E08093B5
:105550005F0310923F0309C0803C09F4A8CF883C48
:1055600009F4A5CF883B09F07FCFE091600381E08B
:105570008E0F80936003F0E0E15CFC4F80818093AC
:10558000BB009091600380915F0329C08091A803C4
:105590008093BB0085EC8093BC0066CF9091A703FD
:1055A0008091A603981758F5E091A70381E08E0F2C
:1055B0008093A703F0E0EA57FC4F8081E9CFE091A8
:1055C000A70381E08E0F8093A7038091BB00F0E0DA
:1055D000EA57FC4F80839091A7038091A603981708
:1055E000C8F285E8D8CFE091A70381E08E0F8093C1
:1055F000A7038091BB00F0E0EA57FC4F80838091C5
:10560000850381115ECF81E08093840384EA8093D7
:10561000BC001092830328CF85EC8093BC001092CD
:10562000830380918103803230F4E0918103F0E0C4
:10563000EF59FC4F10826091810370E081E693E0A6
:10564000F0E0E0E00995109281030ECF1092820302
:1056500038CFEF92FF920F931F93CF93DF93F82EE3
:10566000192FE62E042F81E0860F880F0E94B307C2
:1056700083E00E94B307CF2DD12FEC0EFD2EF11C3D
:10568000CE15DF05B9F007FF13C0FE0184910E941B
:10569000B307182F80E00E94B30781232196811160
:1056A000EFCFDF91CF911F910F91FF90EF90089571
:1056B0008881EDCF81E0F5CF823049F18330A1F0D0
:1056C0008130B9F570932302609322028AE59AE152
:1056D0009093070180930601809169008F73806425
:1056E00080936900EB9A11C070931D0260931C02B5
:1056F0008CE69AE19093010180930001809169000A
:105700008C7F816080936900E89A81E008957093AE
:105710001F0260931E0286E69AE190930301809334
:10572000020180916900837F846080936900E99A17
:10573000ECCF709321026093200280E69AE190936F
:10574000050180930401809169008F7C80618093C2
:105750006900EA9ADACF0F931F93CF93DF93EC019E
:10576000062F142F62E0802F0E94960962E0812F9D
:105770000E949609802F90E0FC01EA50F24FE491DC
:10578000F0E0EE0FFF1FE65DF24FA591B491B983F3
:10579000A883FC01E753F24F24912C83812F90E0E2
:1057A000FC01EA50F24FE491F0E0EE0FFF1FE65DDE
:1057B000F24F459154915B834A83FC01E753F24FCA
:1057C000E491ED831F82188619861A868BE39FE188
:1057D0000197F1F78C91282391E009F490E0DA0128
:1057E0008C91E82309F092609E83BE01802F0E9475
:1057F0005C2B8B87BE01812F0E945C2B9B85890FC0
:105800008B87DF91CF911F910F910895CF93DF93F5
:10581000CCE2D4E01B821A8288EE93E0A0E0B0E0F4
:105820008C839D83AE83BF838DE291E099838883CF
:105830002FEF3FEF3D872C87A0EBB4E013961C922F
:105840001E92129780E890E015969C938E93149781
:1058500017969C938E93169719969C938E931897F0
:105860001B969C938E931A9756961C9256971D964C
:105870001C921E921C971F961C921E921E9781E0EE
:1058800055968C93559754968C93549753963C9376
:105890002E93529751963C932E93509757968C93F4
:1058A000579758961C9258975A961C921E92599741
:1058B000D5961C92D5978CE0D6968C93D69783E19B
:1058C000D7968C93D79782E1D8968C93D897DA960F
:1058D0001C921E92D997DC961C921E92DB97DD9645
:1058E0001C92DD97DE961C92DE971092EF041092C8
:1058F000F0041092F1041092F2048FEA94E0909672
:105900009C938E935F97E8E0FEE0E491F0E0EE0F69
:10591000FF1FE851F24F859194915E969C938E9370
:105920005D97EBEDFDE08491D3968C93D397E9E0FE
:10593000FEE0E491F0E0EE0FFF1FE851F24F2591F9
:1059400034915C963C932E935B97ECEDFDE0E491F3
:10595000D196EC93D197E095D296EC93D297E82F1D
:10596000E095D496EC93D4978FE391E08D939C933C
:1059700041E060E083EA94E00E94AB2B42E063E008
:1059800087E994E00E94AB2BECE7F4E0D183C0837D
:105990008CE094E0938382838FE190E0958384830D
:1059A0008CE691E0978386838FE092E091878087F1
:1059B000138612861586148617861686108A128A12
:1059C000118A148A138A168A158A108E178A118EE4
:1059D000128EE5E0F4E08AEF91E0918380838BEA18
:1059E00095E293838283158214821682EEEFF3E0B0
:1059F0008CEF91E0918380838EE894E2938382839D
:105A0000158214821682DF91CF910895CF93DF9390
:105A100000D000D000D0CDB7DEB7789484B58260D6
:105A200084BD84B5816084BD85B5826085BD85B542
:105A3000816085BD80916E00816080936E001092C0
:105A4000810080918100826080938100809181003B
:105A500081608093810080918000816080938000CC
:105A6000809191008260809391008091910081608B
:105A7000809391008091900081608093900080914C
:105A8000C10084608093C1008091C10082608093D6
:105A9000C1008091C10081608093C1008091C300EA
:105AA00081608093C3008091C00082608093C000B9
:105AB0008091C20081608093C20080917A008460EE
:105AC00080937A0080917A00826080937A0080913E
:105AD0007A00816080937A0080917A008068809358
